:020000040800F2
:10000000008002202D3000083D2F00083F2F0008FF
:10001000412F0008432F0008452F00080000000072
:10002000000000000000000000000000472F000852
:10003000492F0008000000004B2F00084D2F00083A
:100040007D3000087D3000087D3000087D300008DC
:100050007D3000087D3000087D3000087D300008CC
:100060007D3000087D3000087D3000087D300008BC
:100070007D3000087D3000087D300008552F0008D5
:100080007D3000087D3000087D3000087D3000089C
:100090007D3000087D3000087D3000087D3000088C
:1000A0007D3000087D3000087D3000087D3000087C
:1000B0007D3000087D300008000000007D30000821
:1000C0007D3000087D3000087D3000087D3000085C
:1000D0007D3000087D3000087D3000087D3000084C
:1000E0007D3000087D3000080000000000000000A6
:1000F0000000000000000000000000000000000000
:10010000000000007D300008000000007D30000885
:100110007D300008000000007D3000080000000075
:100120007D3000087D3000087D3000087D300008FB
:100130007D3000087D3000087D30000800000000A0
:100140007D3000087D3000087D3000087D300008DB
:100150007D3000087D3000087D300008652F0008E4
:100160007D3000087D3000087D3000080000000070
:10017000000000007D3000080000000000000000CA
:100180007D3000087D3000087D3000087D3000089B
:080190007D30000800000000B2
:1001A00010B5054C237833B9044B13B10448AFF3B1
:1001B00000800123237010BD7000002000000000AB
:1001C000743F000808B5034B1BB103490348AFF364
:1001D000008008BD0000000074000020743F00088B
:1001E00053B94AB9002908BF00281CBF4FF0FF319E
:1001F0004FF0FF3000F072B9ADF1080C6DE904CE9C
:1002000000F006F8DDF804E0DDE9022304B07047F1
:100210002DE9F047089E04468846002B4BD18A42C0
:10022000154667D9B2FA82F24AB1C2F1200701FA43
:1002300002F320FA07F7954047EA030894404FEA93
:10024000154E230CB8FBFEF71FFA85FC0EFB178832
:1002500043EA084307FB0CF1994209D9EB1807F16F
:10026000FF3080F01B81994240F21881023F2B44FD
:100270005B1AA4B2B3FBFEF00EFB103344EA034456
:1002800000FB0CFCA44509D92C1900F1FF3380F0C8
:100290000781A44540F2048102382C4440EA07401B
:1002A000A4EB0C0400271EB1D4400023C6E9004390
:1002B0003946BDE8F0878B4209D9002E00F0EB806B
:1002C0000027C6E9000138463946BDE8F087B3FA91
:1002D00083F7002F47D18B4202D3824200F2FA808B
:1002E000841A61EB030301209846002EE0D0C6E992
:1002F0000048DDE702B9FFDEB2FA82F2002A40F0E0
:100300008F80491B4FEA154E1FFA85F80127B1FB74
:10031000FEFC230C0EFB1C1143EA014308FB0CF10D
:10032000994207D9EB180CF1FF3002D2994200F242
:10033000CD808446591AA3B2B1FBFEF00EFB101417
:1003400043EA044408FB00F8A04507D92C1900F142
:10035000FF3302D2A04500F2B6801846A4EB080491
:1003600040EA0C409FE7C7F1200CBB4022FA0CFE8C
:100370004EEA030E01FA07F420FA0CF521FA0CF309
:100380004FEA1E482543B3FBF8F92C0C08FB193340
:100390001FFA8EFA44EA034309FB0AF49C4202FA6C
:1003A00007F200FA07F10BD91EEB030309F1FF3046
:1003B00080F087809C4240F28480A9F10209734456
:1003C0001B1BADB2B3FBF8F008FB103345EA034446
:1003D00000FB0AFAA24508D91EEB040400F1FF3322
:1003E0006BD2A24569D90238744440EA0940A0FBA7
:1003F0000289A4EB0A044C45C2464B4654D351D063
:10040000002E69D0B1EB0A0564EB030404FA0CFC7E
:10041000FD40FC404CEA0505C6E90054002747E7CB
:10042000C2F1200320FA03F7954001FA02F021FA05
:1004300003F34FEA154E3843010CB3FBFEF71FFAE6
:1004400085F80EFB173341EA034107FB08F38B42A3
:1004500004FA02F407D9691807F1FF3C2FD28B4246
:100460002DD9023F2944CB1A81B2B3FBFEF00EFB1B
:10047000103341EA034100FB08F38B4207D96918A6
:1004800000F1FF3C17D28B4215D902382944C91A12
:1004900040EA07473BE73746304609E70746E7E6C5
:1004A0001846FBE64145ABD2B8EB020A69EB0E02F7
:1004B00001381346A4E76046E9E7184695E7674622
:1004C000D1E781467CE702382C4447E7ACF1020CC7
:1004D0002B442FE7384608E73746E9E6704700BF68
:1004E00001F0FF01102A2BDB10F0070F08D010F8E5
:1004F000013B013A8B422DD010F0070F42B3F6D1E9
:10050000F0B441EA012141EA014122F007047FF001
:1005100000070023F0E80256083C85EA010586EA58
:10052000010685FA47F5A3FA87F586FA47F6A5FA94
:1005300087F68EB9EED1F0BC01F0FF0102F00702A0
:1005400032B110F8013B013A83EA010313B1F8D14B
:100550000020704701387047002D06BF354603382C
:10056000073815F0010F07D1013015F4807F02BF65
:10057000013015F4C03F0130F0BC0138704700BFB6
:10058000104B1B680BB90120704710B504464FF49F
:100590007A70B0FBF3F30C4A1068B0FBF3F000F094
:1005A00091F868B90F2C01D901200AE000222146F8
:1005B0004FF0FF3000F044F8024B5C60002000E098
:1005C000012010BD000000200800002010B5094ADD
:1005D000136843F480731360032000F01FF80020B9
:1005E000FFF7CEFF10B10124204610BD044602F0F3
:1005F000E9FBF9E700200240034A13680349096850
:100600000B441360704700BF9C00002000000020D6
:10061000014B1868704700BF9C000020074AD36850
:1006200023F4E0631B041B0C000200F4E060184399
:1006300040F0BF6040F40030D060704700ED00E053
:1006400030B4174BDB68C3F30223C3F10704042C57
:1006500028BF04241D1D062D18D9033B4FF0FF357C
:1006600005FA04F421EA0401994005FA03F322EAA9
:100670000303194300280BDB0901C9B200F16040F4
:1006800000F5614080F8001330BC70470023E5E7B7
:1006900000F00F000901C9B2024B1954F4E700BF82
:1006A00000ED00E014ED00E0002807DB00F01F0281
:1006B000400901239340024A42F82030704700BFAE
:1006C00000E100E00138B0F1807F0AD2064B5860AB
:1006D000064AF02182F823100020986007221A6051
:1006E00070470120704700BF10E000E000ED00E01F
:1006F000002869D010B403460168344A914245D8B5
:10070000334A0A443349A1FB02121209920042649F
:10071000314A0264022283F825201868016821F416
:10072000FF4121F070019A68DC6822431C69224372
:100730005C6922439C692243DC6922431C6A224390
:100740000A4302609A68B2F5804F15D0196C224AAC
:10075000914226D0214A1168586C00F01C040F20E9
:10076000A04021EA00011160116858685C6C04F037
:100770001C04A040014311600020D863012283F8CB
:10078000252083F824005DF8044B7047144A0A447E
:100790001049A1FB0212120992004264114A02643C
:1007A000B8E7A8321168586C00F01C040F20A04074
:1007B00021EA00011160116858685C6C04F01C04A7
:1007C000A04001431160D7E70120704707040240B1
:1007D000F8FFFDBFCDCCCCCC00000240A804024005
:1007E000F8FBFDBF0004024008B590F82530DBB2ED
:1007F000022B03D00423C363012008BD02681368E1
:1008000023F00E0313600268136823F001031360E2
:10081000436C03F01C03016C012202FA03F34B60EA
:1008200080F82520002380F82430836B13B198478B
:100830000020E2E70020E0E738B5036C196804689F
:100840002568436C03F01C0304229A400A4215D029
:1008500015F0040F12D0236813F0200F03D1236882
:1008600023F004032360436C03F01C02016C042397
:1008700093404B60036B03B1984738BD02229A4006
:100880000A421CD015F0020F19D0236813F0200F74
:1008900006D1236823F00A032360012380F8253062
:1008A000436C03F01C02016C022393404B60002355
:1008B00080F82430C36A002BDFD09847DDE7082298
:1008C00002FA03F30B42D8D015F0080FD5D02368F5
:1008D00023F00E032360436C03F01C03016C012220
:1008E00002FA03F34B60C26380F82520002380F8EE
:1008F0002430436B002BC0D09847BEE7F0B583B0DF
:10090000002336E0042400E00024B4403C430235D8
:100910005B4E46F825405B4C2568D44304EA050647
:100920004F6817F4803F01D042EA0506554D2E600E
:100930006D6804EA05064F6817F4003F01D042EAEB
:100940000506504D6E60AD6804EA05064F6817F461
:10095000801F01D042EA05064A4DAE60ED682C408A
:100960004E6816F4001F01D042EA0504454AD460DF
:1009700001330A6832FA03F47FD001249C402240FC
:10098000F6D04D686E1E012E03D9112D01D0122D07
:1009900012D186685F000325BD4026EA0506CD68B2
:1009A000BD4035438560466826EA04064D68C5F3B8
:1009B00000149C4034434460C5685F000324BC407D
:1009C000E44325408E68BE402E43C6604D68022D2C
:1009D00001D0122D13D1DE08083650F826E003F0BE
:1009E00007054FEA850C0F2505FA0CF52EEA050ED2
:1009F0000D6905FA0CF545EA0E0540F82650056824
:100A00002C404D6805F00305BD402C4304604C6844
:100A100014F0805FACD01C4C256E45F001052566B6
:100A2000246E04F001040194019C9D08AE1C144C3A
:100A300054F8267003F00304A6000F24B44027EAFC
:100A40000407B0F1904F3FF45FAF104CA0420ED0BE
:100A500004F58064A0420CD004F58064A0420AD062
:100A600004F58064A0423FF44DAF07244DE7012414
:100A70004BE7022449E7032447E703B0F0BD00BF7A
:100A80000000014000040140001002400004004842
:100A90000AB981627047816170470000024B186893
:100AA00000F4C060704700BF00700040B0F5007FE8
:100AB0000FD01F4B1B6803F4C063B3F5806F34D0B5
:100AC0001B4A136823F4C06343F48063136000205F
:100AD0007047174B1B6803F4C063B3F5007F22D047
:100AE000134A136823F4C06343F400731360114B7B
:100AF0001A68322303FB02F30F4AA2FB03239B0C69
:100B0000013300E0013B0A4A526912F4806F01D0C0
:100B1000002BF7D1064B5B6913F4806F01D10020E5
:100B2000704703207047002070470020704700BFC7
:100B3000007000400800002083DE1B43F0B44B6AC5
:100B400033B1B2F1406F03D08B6A0468013B23617B
:100B50008C69002C6ED00E6A002E3BD003688C6826
:100B6000DC61CC69F4B1CB6A0D6B2B434D6B2B432D
:100B70004D6A2B434D6943EA85430D692B430D6A4A
:100B80002B43CD682B4323438C6923430C682343B9
:100B9000046813436361B2F1406F19D003684A6877
:100BA0009A6115E0CB6A0D6B2B434D6B2B434D6A5D
:100BB0002B434D6943EA85430D692B430D6A2B4353
:100BC00023438C6923430C68234301681A434A6119
:100BD000F0BC7047CD69D5B1CB6A0F6B3B434F6B0F
:100BE0003B434F6A3B434F6943EA87433343CE68F5
:100BF00033432B4323430C6823430468134363614B
:100C0000B2F1406FE4D003684A689A61E0E7CB6ACA
:100C10000F6B3B434F6B3B434F6A3B434F6943EA88
:100C2000874333432B4323430C68234301681A4310
:100C30004A61CDE70E6A002E36D003688C68DC610D
:100C4000CD69E5B1CB6A0C6B23434C6B23434C6AF3
:100C500023434C6943EA84430C6923430C6A2343CE
:100C6000CC6823432B438C6923430468134363619B
:100C7000B2F1406FACD003684A689A61A8E7CC6AC9
:100C80000B6B1C434B6B1C434B6A1C434B6944EA84
:100C900083440B691C430B6A1C432C438D692C4312
:100CA000036822435A6193E7CF69CFB1CD6A0B6BDA
:100CB0001D434B6B2B434D6A2B434D6943EA8543E0
:100CC0003343CD682B433B432343046813436361A1
:100CD000B2F1406F3FF47CAF03684A689A6177E7EE
:100CE000D1F824C0BCF1000F3FF472AFCD6A0B6B9A
:100CF0001D434B6B1D434CEA0503496943EA81439D
:100D000033433B43234301681A434A6160E72DE9BB
:100D1000F04105460F4616469846069C2B689B6890
:100D20003B4214BF01230023B34213D0B4F1FF3F71
:100D3000F4D0FFF76DFCA0EB0800A04201D8002C16
:100D4000ECD1042385F841306B6C43F001036B64F4
:100D5000012000E00020BDE8F0812DE9F04182B0E3
:100D600004460F461646FFF753FC94F84030DBB2BA
:100D7000012B3BD00546012384F8403094F84130E4
:100D8000DBB2012B08D04FF00208002384F840307A
:100D9000404602B0BDE8F08100226264022384F87C
:100DA00041300096034620212046FFF7B0FF8046E1
:100DB0000028EAD1002239462046FFF7BFFE7B6AB1
:100DC0001BB1012384F84130DFE700962B46012256
:100DD00002212046FFF79BFF80460028D5D12368DB
:100DE0000222DA60012384F84130CEE74FF0020896
:100DF000CEE72DE9F04182B0044688461746FFF75A
:100E000007FC256894F84030DBB2012B54D006462D
:100E1000012384F8403094F84130DBB2012B07D035
:100E20000222002384F84030104602B0BDE8F08171
:100E300000236364B8F1000F38D0122384F84130E6
:100E40002B690133E3622B690133A362C4F8248068
:100E50006B6923F040636B610022E36A9BB10097EA
:100E60003346012204212046FFF751FF024650B9C4
:100E7000636A1B7885F82030636A01336362E36A32
:100E8000013BE362E9E71AB1012384F84130C8E786
:100E900000973346012202212046FFF738FF024621
:100EA0000028F1D123680221D960EDE7636C43F09B
:100EB000080363640122B4E70222B5E72DE9F0419B
:100EC00082B0044688461746FFF7A2FB2568AA6948
:100ED00094F84030DBB2012B58D00646012384F849
:100EE000403094F84130DBB2012B07D002220023BE
:100EF00084F84030104602B0BDE8F08100236364FE
:100F0000B8F1000F3CD0222384F841302B69013323
:100F1000A3632B6901336363C4F830806B6923F0EA
:100F2000406343F080636B6123689A610022A36B86
:100F30009BB100973346012206212046FFF7E7FECA
:100F4000024650B9236B95F820101970236B0133BA
:100F50002363A36B013BA363E9E71AB1012384F880
:100F60004130C4E700973346012202212046FFF7B3
:100F7000CEFE02460028F1D123680221D960EDE7B8
:100F8000636C43F0080363640122B0E70222B1E717
:100F9000704708B5806A00238363C36290F84130CC
:100FA000DBB2082B05D0012380F84130FFF7F0FFBA
:100FB00008BD03680222DA600268136843F4003354
:100FC00013600268136843F002031360F0E7704790
:100FD00070477047704770477047704710B50446B8
:100FE00003689A68196812F0040F3FD011F4802F3B
:100FF0003CD090F84120D2B2122A0DD090F8412076
:10100000D2B2222A25D02046FFF7E5FF10BD136893
:1010100023F480231360F6E72268916811F0040F2F
:10102000F1D0E16A0029F2D0626A127883F82020B8
:10103000626A01326262E26A013AE262ECE7226BC2
:1010400093F820101170226B01322263A26B013AD7
:10105000A2632268916811F0040FD4D0A16B00291B
:10106000EDD1136823F480231360CCE712F0020F54
:1010700076D011F4003F73D00222DA602268136840
:1010800023F4E023136094F84130DBB2122B1DD01F
:1010900094F84130DBB2222B2ED094F84130DBB2F1
:1010A000022B52D094F84130DBB2082BAED122682B
:1010B000536923F040635361012384F84130636C2A
:1010C000002B49D12046FFF782FF9FE723681A686B
:1010D00012F0040F09D01A6822F004021A60E36BC0
:1010E0001A68136823F001031360012384F8413068
:1010F0002046FFF76FFF89E72268136813F0040F9B
:1011000010D0136823F004031360E36B1A681368AC
:1011100023F001031360012384F841302046FFF7D8
:1011200058FF73E723689B6813F4F85FF3D0A36B51
:10113000002BF0D0236B92F820101970236B013331
:101140002363A36B013BA363ECE7012384F84130E5
:101150002046FFF73DFF59E72046FFF719FF55E707
:1011600012F0080F14D011F4002F11D00822DA6009
:1011700023681A6812F4800F06D01A6822F410222D
:101180001A60012384F841302046FFF725FF3DE730
:1011900012F0010F31D011F4803F2ED00122DA601D
:1011A0002268136823F470231360636C43F0020316
:1011B000636423681A6812F0040F17D01A6822F0CB
:1011C00004021A60E36B144A9A63E06BFFF70CFBAE
:1011D00000283FF41BAF636C43F0040363640123F6
:1011E00084F841302046FFF7D3FE0FE7012384F84F
:1011F00041302046FFF7CCFE08E712F0100F3FF415
:1012000005AF11F4801F3FF401AF1022DA602046D1
:10121000FFF7E3FEFAE600BF930F00088164704712
:1012200030B583B00446FFF7F3F9002C56D00546DD
:1012300094F84030DBB2012B52D0012384F84030C7
:1012400094F84130002B3ED021680B6823F4706382
:10125000A268013A43EA02230B60A36C00932B4679
:10126000002220212046FFF752FD014628BB2068BE
:10127000036823F07F4323F0D0036568E26842EA05
:101280000562E5692A43256A2A43134303602068FF
:101290004268144B13402569626942EA0542A56918
:1012A0002A43134343602268136843F00103136029
:1012B00000236364012384F84130002384F8403024
:1012C000084603B030BD84F84030204601F092FD5E
:1012D00041F288312046FFF7A1FFB5E70121EFE792
:1012E0000221EDE7FEF8E0FF30B583B00546204B64
:1012F0009B6D13F0805F0BD0FFF7D0FBB0F5007F44
:1013000017D0802D1FD82DD0702D2DD000211BE09F
:10131000174CA36D43F08053A365A36D03F0805376
:101320000193019BFFF7BAFBA36D23F08053A365E4
:10133000E4E7802D03D9A02D03D9022104E0002188
:1013400002E0012100E003210A4A136823F00703A9
:101350000B431360136803F007038B4206D0012090
:1013600003B030BD0221EFE70121EDE70020F7E7F0
:101370000010024000200240284A9368D26802F020
:10138000030213F00C030AD00C2B06D0042B1FD041
:10139000082B20D00020024610E0012AF6D11F4A77
:1013A000126812F0080F0CD11C4AD2F89420C2F334
:1013B00003221B4951F8222043B100200C2B0DD0F1
:1013C0007047164A1268C2F30312F2E71046F5E7B7
:1013D00014480022F2E714480022EFE70F4BDB68C5
:1013E00003F00303022B15D0032B15D00B4BD86849
:1013F000C0F302100130D968C1F3062102FB01F2EB
:10140000B2FBF0F2D868C0F3416001304000B2FB9B
:10141000F0F0D5E7034AE9E7034AE7E700100240A6
:10142000903F00080024F40000127A00002800F029
:101430002783F0B583B00446AF4B9D6805F00C05DB
:10144000DE6806F00306036813F0100F5BD0E5B109
:101450000C2D18D0A369002B00F0BC80A64A13689D
:1014600043F001031360FFF7D3F80746A24B1B6854
:1014700013F0020F40F09B80FFF7CAF8C01B022850
:10148000F4D9032308E3012EE4D19B4B1B6813F02E
:10149000020F03D0A369002B00F0F582206A964B5F
:1014A0001B6813F0080F5CD0934B1B6803F0F0032C
:1014B00098425DD8904B1A6842F008021A601A6888
:1014C00022F0F002216A0A431A605A6822F47F422D
:1014D000E16942EA01225A60002D61D0FFF74CFF1A
:1014E000854B9B68C3F30313844AD35C03F01F034B
:1014F000D840834B1860834B1868FFF741F80346C8
:10150000002840F0C982236813F0010F00F08180A9
:10151000082D75D00C2D71D06368B3F5803F00F0B5
:101520009780B3F5A02F00F09980734B1A6822F4CE
:1015300080321A601A6822F480221A606368002BD5
:1015400000F09980FFF764F807466B4B1B6813F4B3
:10155000003F5ED1FFF75CF8C01B6428F5D9032378
:101560009AE2654BD3F894301B0903F0F0039FE730
:10157000FFF7BAFE002840F088825F4B1A6842F0FD
:1015800008021A601A6822F0F002216A0A431A60FF
:101590005A6822F47F42E16942EA01225A609DE7DB
:1015A000206AFFF7A1FE002898D0012374E2524B75
:1015B0001A6842F008021A601A6822F0F002216AE2
:1015C0000A431A605A6822F47F42E16942EA012222
:1015D0005A6098E7484A136823F001031360FFF745
:1015E00017F80746444B1B6813F0020F8BD0FFF728
:1015F0000FF8C01B0228F5D903234DE2032E8BD12F
:101600003D4B1B6813F4003F03D06368002B00F0D0
:101610003E82236813F0020F4FD0042D3CD00C2DD6
:1016200038D0E368002B78D0334A136843F48073D2
:101630001360FEF7EDFF06462F4B1B6813F4806F17
:1016400062D1FEF7E5FF801B0228F5D9032323E2D0
:10165000294A136843F4803313606FE703F1804332
:10166000A3F53C331A6842F480221A601A6842F4E7
:1016700080321A6062E7FEF7CBFF07461E4B1B68FD
:1016800013F4003FC5D0FEF7C3FFC01B6428F5D993
:10169000032301E2022EC4D1174B1B6813F4806FA1
:1016A00003D0E368002B00F0F481134A536823F061
:1016B000FE43216943EA01635360236813F0080F76
:1016C00056D06369002B3CD00B4AD2F8943043F0DB
:1016D0000103C2F89430FEF79BFF0646064BD3F891
:1016E000943013F0020F43D1FEF792FF801B0228C3
:1016F000F4D90323D0E100BF00100240C03F00082E
:101700000800002004000020B04A536823F0FE4384
:10171000216943EA01635360CFE7AC4A136823F4BD
:1017200080731360FEF774FF0646A84B1B6813F422
:10173000806FC2D0FEF76CFF801B0228F5D903230F
:10174000AAE1A24AD2F8943023F00103C2F89430FF
:10175000FEF75EFF06469D4BD3F8943013F0020F60
:1017600006D0FEF755FF801B0228F4D9032393E12E
:10177000236813F0040F7AD0944B9B6D13F0805FB5
:101780000BD1924B9A6D42F080529A659B6D03F09B
:1017900080530193019B012600E000268C4B1B68BF
:1017A00013F4807F26D0A368012B37D0052B3DD0C2
:1017B000864BD3F8902022F00102C3F89020D3F892
:1017C000902022F00402C3F89020A368002B3BD0A5
:1017D000FEF71EFF07467D4BD3F8903013F0020F43
:1017E00044D1FEF715FFC01B41F288339842F2D96D
:1017F000032351E1764A136843F480731360FEF7C4
:1018000007FF0746724B1B6813F4807FCBD1FEF7AE
:10181000FFFEC01B0228F5D903233DE16B4AD2F835
:10182000903043F00103C2F89030CEE7674BD3F815
:10183000902042F00402C3F89020D3F8902042F0A8
:101840000102C3F89020C0E7FEF7E2FE07465F4BB7
:10185000D3F8903013F0020F08D0FEF7D9FEC01B6A
:1018600041F288339842F2D9032315E1E6B923689F
:1018700013F0200F35D0636AE3B1544AD2F89830A0
:1018800043F00103C2F89830FEF7C2FE06464F4B04
:10189000D3F8983013F0020F23D1FEF7B9FE801B66
:1018A0000228F4D90323F7E0484A936D23F08053CC
:1018B0009365DCE7454AD2F8983023F00103C2F87B
:1018C0009830FEF7A5FE0646404BD3F8983013F04B
:1018D000020F06D0FEF79CFE801B0228F4D90323DA
:1018E000DAE0A36A002B00F0D680022B27D00C2D63
:1018F00000F0DB80354B1A6822F080721A601B689A
:1019000013F0006F04D1314AD36823F00303D3608E
:101910002E4AD36823F0887323F48033D360FEF714
:1019200077FE0446294B1B6813F0007F00F0A68069
:10193000FEF76EFE001B0228F4D90323ACE0234B14
:10194000DB6803F00301E26A914209D00C2D00F03C
:10195000A6801E4B1B6813F0806F3BD001239BE0D9
:1019600003F07002216B0139B2EB011FEED103F4D9
:10197000FE42616BB2EB012FE8D103F07842A16B1C
:10198000B2EBC16FE2D103F4C001E26B5208013A3D
:10199000B1EB425FDAD103F0C063226C5208013A26
:1019A000B3EB426FD2D1094B1B6813F0007F78D1A3
:1019B000064B1A6842F080721A60DA6842F0807250
:1019C000DA60FEF725FE044651E000BF0010024039
:1019D00000700040364A136823F080731360FEF7EE
:1019E00017FE0546324B1B6813F0007F06D0FEF74A
:1019F0000FFE401B0228F5D903234DE02C4AD36883
:101A00002C491940E36A206B013843EA0013606BEC
:101A100043EA0023E06B4008013843EA4053206C5E
:101A20004008013843EA4063A06B43EAC0630B43BC
:101A3000D360136843F080731360D36843F08073FE
:101A4000D360FEF7E5FD0446194B1B6813F0007FD9
:101A500006D1FEF7DDFD001B0228F5D903231BE0AC
:101A6000002319E0FEF7D4FD001B02281BD8104B01
:101A70001B6813F0007FF5D000230DE000230BE07E
:101A8000012318467047012306E0012304E00123E7
:101A900002E0012300E00023184603B0F0BD01235B
:101AA000FAE70023F8E70323F6E70123F4E700BF92
:101AB000001002408C809D01002800F09B8070B5D2
:101AC00004464E4B1B6803F007038B420CD24B4A73
:101AD000136823F007030B431360136803F0070335
:101AE0008B4201D0012070BD0D46236813F0010F19
:101AF00039D06368032B09D0022B26D063BB404A40
:101B0000126812F0020F06D10120ECE73C4A12687D
:101B100012F0007F70D03A498A6822F00302134322
:101B20008B60FEF775FD0646354B9B6803F00C0392
:101B30006268B3EB820F16D0FEF76AFD801B41F29C
:101B400088339842F0D90320CDE72D4A126812F469
:101B5000003FE0D10120C6E7294A126812F4806FE5
:101B6000D9D10120BFE7236813F0020F06D0244A21
:101B7000936823F0F003A1680B4393601F4B1B682D
:101B800003F00703AB420CD91C4A136823F0070388
:101B90002B431360136803F00703AB4201D001200D
:101BA000A1E7236813F0040F06D0154A936823F4C5
:101BB000E063E1680B439360236813F0080F07D0DC
:101BC0000F4A936823F46053216943EAC103936089
:101BD000FFF7D2FB0A4B9B68C3F30313094AD35C9C
:101BE00003F01F03D840084B1860084B1868FEF735
:101BF000C7FC78E701207047012074E7002002400D
:101C000000100240C03F000808000020040000202F
:101C1000014B1868704700BF0800002008B5FFF7A7
:101C2000F7FF054B9B68C3F30223044AD35C03F020
:101C30001F03D84008BD00BF00100240D03F00087D
:101C400008B5FFF7E5FF054B9B68C3F3C223044AC1
:101C5000D35C03F01F03D84008BD00BF0010024052
:101C6000D03F0008F8B5594BDB6813F0030F18D0CC
:101C7000564BDB6803F003030268934202D0012550
:101C80002846F8BD002A00F09F80504BDB68C3F364
:101C9000021301334268934201D00125F0E7002589
:101CA0001AE00368022B58D0032B5DD0012B01D022
:101CB00001250FE0454A126812F0020F60D0434D33
:101CC000EA6822F073024468013C43EA04131343B8
:101CD000EB600025002DD3D10F4604463B4A136824
:101CE00023F080631360FEF793FC0646374B1B68B6
:101CF00013F0006F05D0FEF78BFC801B0228F5D98E
:101D00000325002DBCD1002F3CD130490B6923F0B5
:101D1000784323F4FE43A068E268D20642EA002238
:101D200013430B61294A136843F080631360FEF785
:101D30006FFC0646254B1B6813F0006F05D1FEF7BC
:101D400067FC801B0228F5D90325002D98D11F4A76
:101D50001369A1690B43136192E71C4A126812F4DC
:101D6000806FACD10125B5E7184A126812F4003F24
:101D7000A5D1164A126812F4802FA0D10125A9E737
:101D80000125A7E7012F0FD01048026922F0C06299
:101D900022F4FE42A16863695B08013B5B0643EAEB
:101DA000012313430361BDE70848026922F4C0021E
:101DB00022F4FE42A16823695B08013B5B0543EA0C
:101DC000012313430361ADE7012559E700100240E9
:101DD0002DE9F04182B00446036813F4006F26D069
:101DE000C36CB3F5000F06D0B3F5400F1DD09BB107
:101DF000012637461DE0BE4AD36843F48033D360E2
:101E00000027BB4AD2F8883023F44003E16C0B432F
:101E1000C2F8883000260CE000210430FFF722FFD2
:101E200007460028EDD0064603E00027E9E7002634
:101E30003746236813F4003F6BD0AD4B9B6D13F016
:101E4000805F4CD1AA4B9A6D42F080529A659B6D8F
:101E500003F080530193019B4FF00108A54A1368DA
:101E600043F480731360FEF7D3FB0546A14B1B6858
:101E700013F4807F05D1FEF7CBFB401B0228F5D978
:101E80000327002F40D19A4BD3F8903013F44073BE
:101E900015D0626E9A4212D0954AD2F8903023F44F
:101EA0004073D2F8901041F48031C2F89010D2F80B
:101EB000901021F48031C2F89010C2F8903013F0E5
:101EC000010F0FD1002F40F01181894AD2F89030D4
:101ED00023F44073616E0B43C2F8903015E04FF06D
:101EE0000008BBE7FEF794FB0546814BD3F8903022
:101EF00013F0020FE6D1FEF78BFB401B41F2883353
:101F00009842F2D90327DDE73E46B8F1000F40F0D2
:101F1000F380236813F0010F08D0754AD2F8883097
:101F200023F00303216A0B43C2F88830236813F0BF
:101F3000020F08D06E4AD2F8883023F00C03616A91
:101F40000B43C2F88830236813F0040F08D0684AA6
:101F5000D2F8883023F03003A16A0B43C2F88830EE
:101F6000236813F0080F08D0614AD2F8883023F0B4
:101F7000C003E16A0B43C2F88830236813F0200FD6
:101F800008D05B4AD2F8883023F44063216B0B43BE
:101F9000C2F88830236813F4007F08D0544AD2F87E
:101FA000883023F44023616C0B43C2F888302368E7
:101FB00013F4806F08D04E4AD2F8883023F44013CF
:101FC000A16C0B43C2F88830236813F0400F08D08F
:101FD000474AD2F8883023F44053616B0B43C2F870
:101FE0008830236813F0800F08D0414AD2F8883037
:101FF00023F44043A16B0B43C2F88830236813F4E9
:10200000807F08D03A4AD2F8883023F44033E16B1D
:102010000B43C2F88830236813F4801F08D0344A79
:10202000D2F89C3023F00303216C0B43C2F89C30A0
:10203000236813F4005F0FD02D4AD2F8883023F0C4
:102040004063216D0B43C2F88830236DB3F1006FFC
:1020500058D0B3F1806F5AD0236813F4002F0FD0FB
:10206000234AD2F8883023F04063616D0B43C2F8F5
:102070008830636DB3F1006F51D0B3F1806F53D0EE
:10208000236813F4802F0FD0194AD2F8883023F038
:102090004063A16D0B43C2F88830A36DB3F1006FAC
:1020A0004AD0B3F1806F4CD0236813F4804F0CD02A
:1020B0000F4AD2F8883023F04053E16D0B43C2F849
:1020C0008830E36DB3F1805F43D0236813F4803F21
:1020D00008D0074AD2F8883023F00043216E0B4322
:1020E000C2F88830304602B0BDE8F0813E460CE7C9
:1020F00000100240007000401A4A936D23F0805394
:10210000936506E7D36843F48013D360A4E7012105
:10211000201DFFF7A7FD00289ED006469CE7D36848
:1021200043F48013D360ABE70121201DFFF79AFD34
:102130000028A5D00646A3E7D36843F48013D360F4
:10214000B2E70121201DFFF78DFD0028ACD0064627
:10215000AAE70221201DFFF785FD0028B5D006461D
:10216000B3E700BF001002402DE9F04804460168C3
:1021700083680269134342691343C26913430868C1
:102180009F4A024013430B602268536823F4405374
:10219000E1680B435360A16922689A4B9A4201D0CF
:1021A000236A1943936823F430630B4393602368D5
:1021B000954A934223D0954A934234D0944A93420D
:1021C0004AD0944A93425DD08E4A934270D01025F3
:1021D0008C4A934200F08F80E369B3F5004F00F022
:1021E0000581082D00F2A281DFE815F06201780177
:1021F0008201A0018D01A001A001A001970102F5BB
:102200005842D2F8882002F00302032A09D8DFE8F6
:1022100002F0020468060125DAE70425D8E708255C
:10222000D6E71025D4E702F5E632D2F8882002F08E
:102230000C020C2A0ED8DFE802F0070D0D0D090D77
:102240000D0D560D0D0D0B000025C1E70425BFE750
:102250000825BDE71025BBE702F5E432D2F8882057
:1022600002F03002102A09D005D9202A3DD0302AA8
:1022700006D10825ACE71AB90025A9E70425A7E788
:102280001025A5E702F5E232D2F8882002F0C0025C
:10229000402A09D005D9802A29D0C02A06D108258C
:1022A00096E71AB9002593E7042591E710258FE7F3
:1022B00002F5C832D2F8882002F44062B2F5806F8D
:1022C0000BD007D9B2F5006F13D0B2F5406F06D12D
:1022D00008257DE71AB900257AE7042578E7102557
:1022E00076E7022574E7022572E7022570E70225EA
:1022F0006EE702256CE7082D00F21B81DFE815F080
:102300000C0019011400190111001901190119011A
:1023100009004FF4004008E0FFF780FC28B90020D6
:10232000D7E0FFF729F8F9E73B48626802EB420380
:10233000834200F20081B0EB023F00F2FE80082DE4
:1023400051D8DFE805F00550205030505050430080
:10235000FFF764FC0025070E0602626850082B4652
:1023600016EB000B47F1000C58466146FDF738FFAD
:1023700003462846A3F54071284A914200F2DF80C7
:102380002268D360A5E0560800252B46DFF890B000
:102390004FF0000C1BEB06004CF10001FDF720FF95
:1023A00003462846E6E7FEF7E7FF0025070E06028C
:1023B000626850082B4616EB000B47F1000C58469C
:1023C0006146FDF70DFF03462846D3E75008002776
:1023D00000252B4610F5000047F10001FDF700FF36
:1023E00003462846C6E701200023C3E7082D5CD832
:1023F000DFE805F018313C5B475B5B5B520000BFD8
:10240000F369FFEF008000400038014000440040C5
:1024100000480040004C00400024F400FFFC0F0086
:10242000000024F4FFF7FAFB6268530803EB400353
:10243000B3FBF2F39BB20020A3F110014FF6EF7251
:1024400091427ED89AB222F00F02C3F342031343A3
:102450002268D3603DE0FFF7F3FB6268530803EBAB
:102460004003B3FBF2F39BB20020E5E76268530838
:1024700003F1F47303F59043B3FBF2F39BB2002036
:10248000DAE7FEF779FF6268530803EB4003B3FB1A
:10249000F2F39BB20020CFE76268530803F5803364
:1024A000B3FBF2F39BB20020C6E701200023C3E791
:1024B000FFF7B4FB636800EB5302B2FBF3F292B296
:1024C0000020A2F110014FF6EF7399423BD8236828
:1024D000DA60002222666266BDE8F088FFF7B0FB92
:1024E000636800EB5302B2FBF3F292B20020E8E71C
:1024F00063685A0802F5740202F51052B2FBF3F257
:1025000092B20020DDE7FEF737FF636800EB53026D
:10251000B2FBF3F292B20020D3E763685A0802F5E7
:102520000042B2FBF3F292B20020CAE7012000227F
:10253000C7E70120CDE70120CBE70120C9E7012053
:10254000C7E70120C5E70120C3E700BF436A13F0D6
:10255000010F06D00268536823F40033816A0B43ED
:102560005360436A13F0020F06D00268536823F4E5
:102570008033C16A0B435360436A13F0040F06D0E3
:102580000268536823F48023016B0B435360436A52
:1025900013F0080F06D00268536823F40043416B20
:1025A0000B435360436A13F0100F06D00268936820
:1025B00023F48053816B0B439360436A13F0200F25
:1025C00006D00268936823F40053C16B0B439360F9
:1025D000436A13F0400F0AD00268536823F4801353
:1025E000016C0B435360036CB3F5801F0BD0436A3F
:1025F00013F0800F06D00268536823F40023816C27
:102600000B43536070470268536823F4C003416C66
:102610000B435360EBE72DE9F04104460F461646A5
:102620009846069D2368DB6937EA03030CBF012344
:102630000023B3423AD1B5F1FF3FF3D0FDF7E8FFF5
:10264000A0EB0800A8421FD8F5B123681A6812F061
:10265000040FE7D0DA6912F4006FE3D04FF40062A0
:102660001A622268136823F4D07313602268936897
:1026700023F00103936020236367A367E3670023CC
:1026800084F87030032012E02268136823F4D073BA
:1026900013602268936823F001039360202363672B
:1026A000A367002384F87030032000E00020BDE819
:1026B000F0812DE9F04182B01E46436F202B55D1A9
:1026C00004460D469046002955D0002A55D090F872
:1026D0007030012B53D0012380F870300023C36782
:1026E00021234367FDF794FF0746A4F85080A4F820
:1026F0005280A368B3F5805F05D04FF00008002337
:1027000084F8703013E0236913B14FF00008F6E746
:10271000A8460025F3E738F8023B2268C3F3080314
:102720001385B4F85230013B9BB2A4F85230B4F890
:1027300052309BB273B100963B4600228021204666
:10274000FFF769FFE8B9002DE5D0236815F8012BE4
:102750001A85E6E700963B46002240212046FFF717
:102760005AFF034678B92022626700E00223184628
:1027700002B0BDE8F0810123F9E70123F7E7022366
:10278000F5E70323F3E70323F1E730B583B004460D
:102790000023C367FDF73CFF054623681B6813F061
:1027A000080F0CD123681B6813F0040F15D12023E8
:1027B0006367A367002084F8700003B030BD6FF03A
:1027C0007E430093034600224FF400112046FFF79A
:1027D00022FF0028E6D00320EFE76FF07E4300934E
:1027E0002B4600224FF480012046FFF714FF0028FB
:1027F000DDD00320E1E768B310B50446436F03B3AF
:10280000242363672268136823F0010313602046C2
:10281000FFF7AAFC012813D0636ABBB9226853688A
:1028200023F4904353602268936823F02A03936053
:102830002268136843F0010313602046FFF7A5FFE9
:1028400010BD80F8703000F045FBD9E72046FFF757
:102850007DFEE3E70120704710B58AB0002405949F
:102860000694079408940994204BDA6C42F0040211
:10287000DA64DA6C02F004020192019ADA6C42F036
:102880008002DA64DA6C02F080020292029ADA6C58
:1028900042F00102DA64DA6C02F001020392039A58
:1028A000DA6C42F00202DA64DB6C03F00203049398
:1028B000049B224620214FF09040FEF7E9F84FF4A8
:1028C000005305930A4B0693079405A90948FEF7A0
:1028D00015F820230593012306930794089405A96E
:1028E0004FF09040FEF70AF80AB010BD0010024009
:1028F000000021100008004800B583B00A4B9A6C14
:1029000042F001029A649B6C03F001030193019B66
:10291000002211460F20FDF793FE0F20FDF7C4FEA5
:1029200003B05DF804FB00BF0010024008B5094881
:10293000094B036002234360012383600023C360CB
:102940001822026143618361C3610362FEF768FC80
:1029500008BD00BF68010020001000A008B50948AC
:10296000094B03604FF41653436000238360C36038
:1029700003610C2242618361C36103624362FFF71A
:102980003AFF08BDE80000200044004010B514469E
:102990004FF47A7392B20248FFF78BFE204610BDC7
:1029A000E800002070B58EB00E464FF48073069399
:1029B000022300934FF48063079301904FF4005378
:1029C0000393002308934FF08071099105930B93B3
:1029D0000C930D930A92094D40F6FF726946284602
:1029E000FEF7BBF9044640F6FF7231462846FEF773
:1029F00000FA204440B20EB070BD00BF6801002054
:102A000070B58EB00E464FF44073069302230093C8
:102A10004FF44063079301904FF400530393002356
:102A200008934FF04071099105930B930C930D930C
:102A30000A92094D40F6FF7269462846FEF78DF965
:102A4000044640F6FF7231462846FEF7D2F920448C
:102A500040B20EB070BD00BF6801002070B58EB0EE
:102A60000E464FF480730693032300934FF4806364
:102A7000079301904FF400530393002308934FF002
:102A80008071099105930B930C930D930A92094D54
:102A900040F6FF7269462846FEF75FF9044640F6A5
:102AA000FF7231462846FEF709FA204440B20EB0C4
:102AB00070BD00BF6801002070B58EB00E464FF4A7
:102AC00040730693032300934FF4406307930190F0
:102AD0004FF400530393002308934FF04071099182
:102AE000022105910B930C930D930A92084D40F629
:102AF000FF7269462846FEF730F9044640F6FF7239
:102B000031462846FEF7DAF9204440B20EB070BDD7
:102B10006801002000B58FB04FF440730693FF2387
:102B200000930023079301934FF4005203920893FC
:102B3000099305930B930C930D930A9340F6FF7240
:102B400069460348FEF709F940B20FB05DF804FB8F
:102B50006801002000B58FB04FF4807306933823CE
:102B600000930023079301934FF4005203920893BC
:102B7000099305930B930C930D930A9340F6FF7200
:102B800069460348FEF7E9F840B20FB05DF804FB70
:102B90006801002070B58EB005464FF4807306932F
:102BA000052300930023079301934FF400520392EF
:102BB00008934FF08072099205930B930C930D9339
:102BC00001230A930A4E40F6FF7269463046FEF72B
:102BD000C4F8044640F6FF7229463046FEF76EF907
:102BE00020442B789B092B7040B20EB070BD00BF03
:102BF0006801002030B5B1B02422002120A800F0E7
:102C000069FA00241A941B941C941D941E94682243
:102C10002146684600F05EFA02251F954FF4807346
:102C200022934023239329952A9501232B930A234A
:102C30002C9307232D932E952F951FA8FEF7F6FBB7
:102C40000F231A9303231B931C941D941E94042199
:102C50001AA8FEF731FF009509946846FFF7B8F807
:102C60004FF40070FDF722FF31B030BD10B5ADF567
:102C7000027DFDF7ABFCFFF7BDFFFFF7EDFDFFF7B2
:102C80003BFEFFF753FEFFF769FE424800F02AFAC9
:102C9000414800F027FA002305E002AAD35442AAD3
:102CA0000021D1540133FF2BF7D901A8FFF772FFA0
:102CB0009DF80410394800F015FA394800F086FAFA
:102CC0004FF4807202A90020FFF76CFE4FF480726F
:102CD00042A90020FFF7C2FE324800F077FA002335
:102CE000FF2B0BD842AAD25C02A9C95C8A4201D14F
:102CF0000133F5E72C4800F0F5F9FEE72B4800F02A
:102D000065FA2B4800F062FA002405E042AB195D39
:102D1000284800F0E7F901340F2CF7D9264800F0D5
:102D200055FAFFF717FF254800F050FA4FF480726C
:102D300002A91046FFF764FE4FF4807242A91046C4
:102D4000FFF7BAFE174800F041FA0023FF2B0BD81B
:102D500042AAD25C02A9C95C8A4201D10133F5E7DB
:102D6000114800F0BFF9FEE7104800F02FFA1048B4
:102D700000F02CFA00240F2C05D90F4800F026FA99
:102D8000FFF7C8FEFEE742AB195D0A4800F0AAF95A
:102D90000134F0E7D83F0008E43F0008184000087D
:102DA00028400008404000085440000868400008DF
:102DB00070400008844000089040000894400008DB
:102DC0007047000082B00A4B1A6E42F001021A6688
:102DD0001A6E02F001020092009A9A6D42F080523F
:102DE0009A659B6D03F080530193019B02B070477D
:102DF00000100240F0B589B00023039304930593BB
:102E00000693079302682F4B9A4201D009B0F0BD98
:102E1000044603F1204303F500331A6D42F4807237
:102E20001A651A6D02F480720092009ADA6C42F010
:102E30000102DA64DA6C02F001020192019ADA6CA2
:102E400042F00202DA64DB6C03F002030293029B9D
:102E5000C023039302250495032706970A260796A5
:102E600003A94FF09040FDF749FD40F6034303935B
:102E70000495002505950697079603A91248FDF7C6
:102E80003DFD1248124B0360052343608560C56019
:102E90008023036145618561C5614FF4405303623E
:102EA000FDF726FC58B9094BE3639C6200221146EA
:102EB0004720FDF7C5FB4720FDF7F6FBA6E7FFF728
:102EC0007FFFF0E7001000A000040048A0000020F1
:102ED0005800024000B589B0002303930493059382
:102EE000069307930268144B9A4202D009B05DF82A
:102EF00004FB03F5E6339A6D42F400329A659A6D4D
:102F000002F400320192019ADA6C42F00102DA64B2
:102F1000DB6C03F001030293029B0C230393022357
:102F20000493032306930723079303A94FF09040CC
:102F3000FDF7E4FCDAE700BF004400407047FEE71D
:102F4000FEE7FEE7FEE770477047704708B5FDF7FC
:102F500053FB08BD08B50248FDF76EFC08BD00BF75
:102F6000A000002008B50248FEF738F808BD00BFF1
:102F70006801002070B50D461646002404E0AFF34A
:102F80000080287001340135B442F8DB304670BD52
:102F900008B503460B4A126842B10A4A1068034456
:102FA0006A46934206D8074A136008BD054A064997
:102FB0001160F2E700F064F80C2303604FF0FF307B
:102FC000F3E700BF8C000020B80100204FF0FF3075
:102FD00070474FF400534B6000207047012070474A
:102FE000002070470F49D1F8883043F47003C1F8CE
:102FF00088300D4B1A6842F001021A600020986078
:103000001A6822F0A85222F410221A604FF480525B
:10301000DA601A6822F480221A6098614FF0006327
:103020008B60704700ED00E000100240DFF834D004
:10303000002103E00C4B5B58435004310B480C4B10
:1030400042189A42F6D30B4A02E0002342F8043BAE
:10305000094B9A42F9D3FFF7C5FF00F017F8FFF7C5
:1030600005FEFEE70080022060410008000000200D
:103070007000002070000020B8010020FEE7000072
:10308000014B1868704700BF0C00002070B50D4E52
:103090000D4CA41BA4100025A54209D10B4E0C4CCD
:1030A00000F068FFA41BA4100025A54205D170BD47
:1030B00056F8253098470135EEE756F82530984701
:1030C0000135F2E750410008504100085041000826
:1030D0005441000802440346934200D1704703F86C
:1030E000011BF9E70FB40A4B13B51C6824B1A3699F
:1030F00013B9204600F022FA05AB049AA1680193A7
:10310000204600F0DBFB02B0BDE8104004B0704781
:103110000C00002070B50E46054618B183690BB946
:1031200000F00CFAAB69AC6813B9284600F006FA57
:10313000234B9C4217D16C68A3891B071DD52369BB
:10314000DBB1013EA36816F8011F013BA360E9B99A
:10315000002B2EDA22460A21284600F03FF80130E3
:1031600011D00A2011E0174B9C4201D1AC68E3E773
:10317000154B9C4208BFEC68DEE72146284600F06C
:103180007FF80028DDD04FF0FF3070BD002B04DA4F
:10319000A2699A4206DC0A2904D023685A1C2260DC
:1031A0001970CFE72246284600F018F80130C9D13F
:1031B000E9E723680A205A1C22601870E5E700BF7F
:1031C000D0400008F0400008B0400008024B014623
:1031D0001868FFF79FBF00BF0C000020F8B50E462F
:1031E0001446054618B183690BB900F0A7F9214BC5
:1031F0009C422AD16C68A369A360A3891A072ED5C3
:10320000236963B323692068C01A6369F6B28342F5
:10321000374604DC2146284600F026F928BBA3687F
:10322000013BA36023685A1C22601E706369013051
:10323000834204D0A389DB0719D50A2E17D1214672
:10324000284600F011F990B10FE00B4B9C4201D1E0
:10325000AC68D0E7094B9C4208BFEC68CBE721463D
:10326000284600F00DF80028CCD04FF0FF37384644
:10327000F8BD00BFD0400008F0400008B040000892
:10328000324B70B51D6806460C4625B1AB6913B9C3
:10329000284600F053F92E4B9C420FD16C68B4F9CC
:1032A0000C309AB215072CD4D00611D40922326002
:1032B00043F04003A3814FF0FF303EE0254B9C429A
:1032C00001D1AC68EBE7244B9C4208BFEC68E6E711
:1032D000510712D5616B41B104F14403994202D008
:1032E000304600F019FA00236363A38923F0240316
:1032F000A3810023636023692360A38943F008034B
:10330000A38123694BB9A38903F42073B3F5007F2C
:1033100003D02146304600F0BFF9A28912F0010324
:103320000CD00023A36063695B42A361236953B996
:10333000B4F90C3013F08000BAD170BD920758BFB9
:103340006369A360F2E70020F7E700BF0C000020EC
:10335000D0400008F0400008B04000088A892DE9FC
:10336000F041054610070C4658D44B68002B05DC8D
:103370000B6C002B02DC0020BDE8F081E66A002E19
:10338000F9D0002312F480522F68216A2B6032D0CA
:10339000606DA3895A0705D56368C01A636B0BB1CA
:1033A000236CC01A00230246E66A216A2846B04709
:1033B000431CA38906D129681D2948D8294ACA4037
:1033C000D60744D500226260D9042269226004D560
:1033D000421C01D12B6803B96065616B2F60002925
:1033E000C9D004F14403994202D0284600F094F970
:1033F00000206063C0E701232846B047411CC8D1C4
:103400002B68002BC5D01D2B01D0162B01D12F60AE
:10341000B1E7A38943F04003A381ADE70F69002F13
:10342000A9D093070E6808BF4B690F6018BF00232F
:10343000A6EB07088B60B8F1000F9CDD43463A46C7
:10344000216AA66A2846B047002806DCA38943F013
:103450004003A3814FF0FF308EE70744A8EB00083C
:10346000E9E700BF0100402038B50B6905460C466E
:10347000DBB118B183690BB900F060F80C4B9C42CA
:1034800009D16C68B4F90C307BB121462846BDE8FF
:103490003840FFF763BF074B9C4201D1AC68F1E7AE
:1034A000054B9C4208BFEC68ECE7002038BD00BF2C
:1034B000D0400008F0400008B0400008002310B5DC
:1034C0000446C0E90033836081814366C281C0E95C
:1034D00004338361194608225C30FFF7FBFD054B7E
:1034E0006362054BA362054BE362054B24622363D1
:1034F00010BD00BF193E00083B3E0008733E0008A7
:10350000973E0008014900F085B800BF6934000803
:1035100070B54A1E682555430E4605F1740100F04A
:1035200049F9044640B10021C0E900160C30A06002
:1035300005F16802FFF7CEFD204670BD836910B526
:10354000044633BBC0E912330365124B124A1B68B1
:103550008262984204BF0123836100F01FF860601B
:10356000204600F01BF8A060204600F017F800226B
:10357000E06004216068FFF7A1FF01220921A06833
:10358000FFF79CFF02221221E068FFF797FF01235B
:10359000A36110BDAC40000805350008F8B51B4B11
:1035A0001E68B369074613B93046FFF7C7FF4836B0
:1035B000D6E90134013B03D5336833B13668F7E708
:1035C000B4F90C506DB16834F4E704213846FFF7C4
:1035D0009FFF30600028F1D10C233B600446204659
:1035E000F8BD0B4B6566C4E90055A560C4E9033519
:1035F000C4E905550822294604F15C00FFF76AFD7D
:10360000C4E90D55C4E91255E9E700BFAC40000814
:103610000100FFFF2DE9F8438046894600F1480488
:10362000002614B93046BDE8F883D4E90175013F9E
:1036300001D52468F5E7AB89012B07D9B5F90E3020
:10364000013303D029464046C84706436835EEE7B4
:1036500070B50E46B1F90E10002996B014461D46FD
:1036600007DA00232B60B3891A0610D44FF4806365
:103670000EE06A4600F036FC0028F2DB019A02F404
:103680007042A2F500535A425A412A60EEE74023A5
:103690000020236016B070BD8B8973B59D07064668
:1036A0000C4607D504F147032360236101236361BE
:1036B00002B070BD01AB6A46FFF7CAFF009905462C
:1036C000304600F077F848B9B4F90C309A05EFD4D9
:1036D00023F0030343F00203A381E3E70D4BB3623E
:1036E000A389206043F08003A381009B6361019B59
:1036F00020615BB1B4F90E10304600F005FC28B132
:10370000A38923F0030343F00103A381A3891D438D
:10371000A581CDE70535000838B50546002945D017
:1037200051F8043C0C1F002BB8BFE41800F00EFC4D
:103730001F4A1368104633B9636014602846BDE819
:10374000384000F004BCA3420CD9216862189342AF
:1037500004BF1A685B68636004BF5218226004608B
:10376000ECE713465A680AB1A242FAD91968581808
:10377000A0420BD120680144581882421960DDD163
:10378000106852685A6001441960D7E702D90C23C7
:103790002B60D3E7206821188A4204BF1168526861
:1037A000626004BF091821605C60C7E738BD00BFD4
:1037B0009400002070B5CD1C25F0030508350C2DB4
:1037C00038BF0C25002D064601DBA94203D90C2386
:1037D0003360002070BD00F0B9FB214A1468214617
:1037E00091B9204C23681BB9304600F005FB2060DE
:1037F0002946304600F000FB431C24D10C233360E3
:10380000304600F0A4FBE4E70B685B1B18D40B2BDD
:103810000FD90B60CD50CC18304600F098FB04F166
:103820000B00231D20F00700C31AD3D05A42E250E8
:10383000D0E78C424B6816BF636013600C46EBE721
:103840000C464968CCE7C41C24F00304A04205D010
:10385000211A304600F0D0FA0130CFD02560DBE7E6
:1038600094000020980000209368013B002B10B4C6
:10387000936008DA9469A34201DB0A2903D15DF859
:10388000044BFFF7ABBC1368581C10601970084656
:103890005DF8044B7047F8B506460F461446D51838
:1038A000AC4201D1002007E03A4614F8011B304633
:1038B000FFF7DAFF431CF3D1F8BD00002DE9F04F0C
:1038C0000C469DB017461D46064618B183690BB9D4
:1038D000FFF734FE7C4B9C4258D17468A3891807CB
:1038E0005ED52369002B5BD00023099320238DF83C
:1038F000293030238DF82A3003954FF0010BB8465C
:10390000454615F8013B0BB1252B54D1B8EB070AFE
:103910000BD053463A4621463046FFF7BCFF0130F4
:1039200000F0C280099B5344099398F80030002BA3
:1039300000F0BA8000234FF0FF32CDE90523049355
:1039400007938DF853301A93A846052218F8011BE7
:103950005E48FCF7C5FD049B78BBD90644BF202216
:103960008DF853201A0744BF2B228DF853202A7854
:103970002A2A2AD0079AA84600200A25414611F88B
:10398000013B303B092B69D960B324E0504B9C428A
:1039900001D1B468A2E74F4B9C4208BFF4689DE791
:1039A00021463046FFF76CFC00289DD04FF0FF30D9
:1039B0001DB0BDE8F08FA846A2E7444A801A0BFA72
:1039C00000F0184304904546BEE7039A111D1268A3
:1039D0000391002A01DB079204E0524243F0020304
:1039E0000792049398F800302E2B0ED198F80130EE
:1039F0002A2B38D1039B1A1D1B680392002BB8BFDA
:103A00004FF0FF3308F102080593334D98F800108A
:103A100003222846FCF764FD40B14023401B03FA13
:103A200000F0049B034308F10108049398F8001088
:103A30002A488DF82810062208F10107FCF750FDEE
:103A4000002837D0264B1BBB039B073323F007030B
:103A500008330393099B4B44099350E705FB02325B
:103A6000012088468AE7002308F1010805931946DA
:103A70000A25404610F8012B303A092A03D9002BB9
:103A8000C3D00591C1E705FB012101238046F0E782
:103A900003AB00932246134B04A93046AFF30080DA
:103AA000B0F1FF3F8146D5D1A3895B063FF57EAFDC
:103AB00009987DE703AB009322460A4B04A93046E0
:103AC00000F088F8ECE700BFD04000081041000883
:103AD000F0400008B0400008164100081A410008F4
:103AE00000000000973800082DE9F04791461F4676
:103AF0008A680B69DDF820809342B8BF1346C9F885
:103B0000003091F8432006460C4612B10133C9F843
:103B100000302368990642BFD9F800300233C9F853
:103B20000030256815F0060507D104F1190AE3688D
:103B3000D9F800209B1AAB4228DC94F84330226865
:103B4000003318BF012392062DD404F143023946F5
:103B50003046C047013020D02368E568D9F80020FE
:103B600003F00603042B08BFAD1AA36822690CBF3B
:103B700025EAE57500259342C4BF9B1AED184FF066
:103B800000091A344D451AD1002008E0012352469D
:103B900039463046C047013003D14FF0FF30BDE811
:103BA000F0870135C3E7E1185A1C302081F8430043
:103BB000224494F8451082F843100233C5E70123EC
:103BC000224639463046C0470130E6D009F10109A6
:103BD000D8E700002DE9F04301F1430C0C46097EC3
:103BE00085B06E291746064698460C9A00F0B380B9
:103BF00022D8632936D00AD8002900F0B980582984
:103C000000F0838004F1420584F8421032E0642918
:103C100001D06929F6D120681368050603F1040173
:103C20002AD51B681160002B03DA2D225B4284F831
:103C300043206F480A2239E0732900F09D8008D89C
:103C40006F2920D07029DDD1236843F02003236041
:103C500003E0752917D07829D4D1782384F845302A
:103C6000644855E01368191D1B68116004F1420592
:103C700084F8423001238CE01B68116010F0400F83
:103C800018BF1BB2CFE713682568181D10602806FF
:103C900001D51B6802E06806FBD51B8854486F29D4
:103CA00014BF0A220822002184F843106568A56029
:103CB000002DC0F29580216821F004012160002BC5
:103CC0003DD1002D40F08E806546082A0BD1236837
:103CD000DB0708D5236962689A42DEBF302305F806
:103CE000013C05F1FF35ACEB05032361CDF8008005
:103CF0003B4603AA21463046FFF7F6FE01304DD180
:103D00004FF0FF3005B0BDE8F083394884F8451026
:103D1000136821681D1D1B6815600A060BD5CA07AC
:103D200044BF41F0200121601BB9226822F020022B
:103D300022601022B7E74D0648BF9BB2EFE7654609
:103D4000B3FBF2F102FB1133C35C05F8013D0B46F6
:103D50000029F5D1B9E7136825686169181D10605D
:103D600028061B6801D5196002E06A06FBD5198098
:103D7000002323616546B9E71368191D11601D68AA
:103D8000626800212846FCF7ABFB08B1401B60606D
:103D900063682361002384F84330A7E723692A4638
:103DA00039463046C0470130AAD023689B0713D458
:103DB000E068039B9842B8BF1846A3E701234A4630
:103DC00039463046C04701309AD00135E368039A3E
:103DD0009B1AAB42F2DCEBE7002504F11909F5E789
:103DE000002BACD1037884F8423004F142056CE733
:103DF000214100083241000838B5064C0023054631
:103E000008462360FFF7C4F8431C02D1236803B1BE
:103E10002B6038BDB401002010B50C46B1F90E106E
:103E200000F096F80028ABBF636DA3891B1823F43C
:103E30008053ACBF6365A38110BD2DE9F0411F46DF
:103E40008B89DB0505460C46164605D50223002264
:103E5000B1F90E1000F068F8A389B4F90E1023F43C
:103E60008053A38132463B462846BDE8F04100F02E
:103E700017B810B50C46B1F90E1000F055F8431CF8
:103E8000A38915BF606523F4805343F48053A38155
:103E900018BFA38110BDB1F90E1000F013B80000D7
:103EA00038B5074C054608461146002222601A46DE
:103EB000FEF76CFD431C02D1236803B12B6038BDB3
:103EC000B401002038B5064C00230546084623609F
:103ED000FFF77CF8431C02D1236803B12B6038BD87
:103EE000B401002038B5074C0023054608461146AA
:103EF0002360FFF76EF8431C02D1236803B12B60E7
:103F000038BD00BFB401002038B5064C002305467B
:103F100008462360FFF762F8431C02D1236803B10F
:103F20002B6038BDB401002038B5074C0546084663
:103F30001146002222601A46FFF752F8431C02D1B4
:103F4000236803B12B6038BDB4010020704770476F
:103F500038B5074C054608461146002222601A462D
:103F6000FFF708F8431C02D1236803B12B6038BD6A
:103F7000B4010020F8B500BFF8BC08BC9E467047ED
:103F8000F8B500BFF8BC08BC9E46704700000000B2
:103F9000A0860100400D0300801A060000350C00C9
:103FA00040420F0080841E0000093D0000127A008C
:103FB0000024F40000366E010048E801006CDC02C9
:103FC00000000000000000000102030406070809C9
:103FD00000000000010203040A0D496E69744F4B92
:103FE0000A0D000051535049205445535420464F68
:103FF00052205352414D2049533632575653353192
:10400000323846422F4953363557565335313238B8
:1040100046420A0D000000004D6F6465205265673E
:104020003A25640A0D0000005374617274205153E4
:1040300050492053696E676C65204D6F64650000C0
:104040005153504920436865636B2044617461207B
:104050003A200D00573A30782530325820523A3005
:1040600078253032582000004E6F204572720D00C6
:104070005153504920526561642044617461203A73
:10408000200D00003078253032582020000000003C
:104090000D0A0D0053746172742051535049205120
:1040A000756164204D6F6465000000001000002001
:1040B0000000000000000000000000000000000000
:1040C00000000000000000000000000000000000F0
:1040D00000000000000000000000000000000000E0
:1040E00000000000000000000000000000000000D0
:1040F00000000000000000000000000000000000C0
:1041000000000000000000000000000000000000AF
:10411000232D302B2000686C4C00656667454647B0
:104120000030313233343536373839414243444533
:1041300046003031323334353637383961626364A2
:084140006566000000000000AC
:08414800C8C0FF7F0100000068
:08415000C50100080000000099
:08415800A101000800000000B5
:10416000010000001000000000093D0010000020C8
:1041700000000000D0400008F0400008B0400008F7
:10418000000000000000000000000000000000002F
:10419000000000000000000000000000000000001F
:1041A000000000000000000000000000000000000F
:1041B00000000000000000000000000000000000FF
:1041C00000000000000000000000000000000000EF
:040000050800302D92
:00000001FF
